:020000041000EA
:1000000000B5324B212058609868022188439860DF
:10001000D860186158612E4B002199600221596106
:100020000121F02299502B49196001219960352056
:1000300000F044F80222904214D00621196600F024
:1000400034F8196E01211966002018661A6600F04E
:100050002CF8196E196E196E052000F02FF8012189
:100060000842F9D1002199601B49196000215960AB
:100070001A491B48016001219960EB211966A021F2
:10008000196600F012F800219960164914480160C1
:100090000121996001BC002800D000471248134993
:1000A000086003C880F30888084703B5996A0420EC
:1000B0000142FBD001200142F8D103BD02B5186610
:1000C0001866FFF7F2FF186E186E02BD00000240BE
:1000D000000000180000070000035F00212200005C
:1000E000F4000018222000A00001001008ED00E03C
:1000F00000000000000000000000000074B24E7A12
:1001000000200420F7010010CB010010CD010010E9
:10011000C9010010C9010010C9010010C901001077
:10012000C9010010C9010010C9010010CF01001061
:10013000C9010010C9010010D1010010D301001045
:10014000C1010010C1010010C1010010C101001067
:10015000C1010010C1010010C1010010C101001057
:10016000C1010010C1010010C1010010C101001047
:10017000C1010010C1010010C1010010C101001037
:10018000C1010010C1010010C1010010C101001027
:10019000C1010010C1010010C1010010C101001017
:1001A000C1010010C1010010C1010010C101001007
:1001B000C1010010C1010010C1010010C1010010F7
:1001C000EFF30580103800BE00BE00BE00BE00BECA
:1001D00000BE00BEF2EB8871484600107046001069
:1001E0003802001090A31AE71E481F49086006C88D
:1001F00081F3088810471D480068002801D019487D
:10020000F3E70DA40ECC002902D000F012F8F9E7B4
:100210001749184A002000E001C19142FCD116495B
:100220008847164988471649884700BEFDE701C937
:1002300001C29A42FBD3704770460010C0000020F4
:10024000F0180020A05E0010000004200000042030
:10025000A05E001000100420001004200000000028
:10026000704700000000000008ED00E0000000D032
:10027000F01800208C24002071220010E5030010EB
:1002800069220010F8B5C04610B5064C2378002B43
:1002900007D1054B002B02D0044800E000BF01232A
:1002A000237010BD701C002000000000F041001001
:1002B000044B10B5002B03D00349044800E000BFF5
:1002C00010BDC04600000000741C0020F04100106A
:1002D0007047C04610B50400402101F085FF2000A2
:1002E00010BDC046F0B5C64600B501F0D9F80029EA
:1002F0000CD0FA220023920001F09CFC364A1368CD
:10030000C01A09280BD880BCB846F0BDFA21890074
:1003100001F052FC304A1368C01A0928F3D90A3395
:10032000136000232D4CD027A363A38738339C464A
:100330000023002198460125221DA4443F062E00DB
:1003400010787B688640334209D1601853780131B8
:100350003830C9B20370052917D8012398460232F4
:100360006245ECD102F0C6FB002825D04346002BA5
:100370000FD1002003F0D2F90028C4D0184C237804
:10038000002B22D100232370BDE702F0B3FB00282D
:1003900002D002F0B7FBB6E7002003F0BFF9002857
:1003A000B1D02300002238330121002003F0D4F91A
:1003B00001220B4B1A70A6E7002003F0AFF90028CA
:1003C000A1D04346002BD9D0EBE700230022012126
:1003D000002003F0C1F9D5E7901C00201024002074
:1003E0008524002070B503F0CDFC0021002003F02F
:1003F00061FB154C154D164E14E0FA2200239200B5
:1004000001F018FC2B682268C01A904208D39B1890
:1004100030782B6003F0CEFC0122337853403370E8
:10042000FFF760FF01200021404202F0FBFB236840
:10043000002BF5D001F034F80029DED1FA21890033
:1004400001F0BAFBDEE7C046D80F00208C1C00206C
:10045000842400200020704710B502A80088022ADA
:1004600000D010BD0129FCD10028FAD01B781A4217
:1004700006D00022064B01201A6003F09BFCF0E737
:10048000002003F097FCFA22014B92001A60E8E783
:10049000D80F0020FA22024B92001A607047C04623
:1004A000D80F0020FA22014B1A607047D80F0020A5
:1004B000014B024A1A607047D80F0020C40900009F
:1004C000FA22024B92001A607047C046D80F0020F3
:1004D00070B5104D104B2C0008C434220F49200079
:1004E000383501F07BFED02606220021280001F0DD
:1004F0006FFE3606207800F0FBF8002220780121FC
:1005000000F0DCF80123227802349340B362A54264
:10051000F0D170BD10240020F841001000420010FE
:100520000048704788420010004870479C42001005
:100530000048704764420010F0B5DE4657464E460C
:100540004546E0B58DB000282CD0032836D000D920
:1005500083E0454B8000C558280003F061FC04008F
:10056000202800D977E0002800D178E03F4B98465A
:100570009A1C0023E95C0133118002329C42F9D8B5
:10058000C02301349B0064001C43A3B20393434681
:100590004046039A1A800DB0F0BCBB46B246A9464D
:1005A000A046F0BD314B0222981C98462E4B19688C
:1005B00001F014FEC1239B000393E8E72C4B002BB2
:1005C0003FD004AD1021280003F0CAFB8446102858
:1005D00001D910239C46002841D063469A00C023CD
:1005E00002329B0013439BB203930F2200269146D5
:1005F0001E4B019698469C1C009508AB18001D4F99
:1006000062CF62C04D463968029001600099194E70
:10061000087805405D5D834665801D0007CE07C5EF
:100620003D68029A15605A461111595C019A218061
:100630000099013201310192009104346245DDD309
:10064000A5E70D4B0D4A04AD049205930C4B0393A3
:1006500008239C46C9E7202485E700209BE7094B37
:100660000393024B984692E7DC0F00201C1D0020EC
:10067000613D00103442001089ABCDEF0123456786
:10068000220300000203000010B54024084A830042
:100690009A181268C0005440C0222240054CA4465B
:1006A00063441A60044B9C466044416010BDC046E0
:1006B00004C0014004D00140004001400B4B8000C9
:1006C0009C46604400290ED100230431002A00D149
:1006D0001900802203685201594094460C2360445B
:1006E0000B40036070470C210823EFE704C0014072
:1006F0000123D02283404021120693629361094A6C
:1007000083009A181268C0005140C0220A4006496E
:100710008C4663441A60054B9C4605236044436045
:100720007047C04604C0014004D001400040014071
:100730008023DB051868000F7047C0460FB400B572
:10074000084883B001F0F0FE049B002B07D005A9F8
:100750001800019101F054FD034801F0E5FE01206D
:1007600001F066FD8C4300109C43001070B5EFF360
:10077000108C72B60D4D2B68002BFCD0BFF35F8F31
:100780000724CB08C618C05C01230C40A3401C0002
:100790000440034207D103433370BFF35F8F2C60E3
:1007A0008CF3108870BD1000FFF7C8FF2C0100D03B
:1007B000F8B54746CE46884680B5EFF3108C72B642
:1007C000214D2C68002CFCD0BFF35F8F9A422CD8AF
:1007D000D4080727055D061901241740BC402C42A8
:1007E0001FD007210127894609E0D408055D0619B5
:1007F0004C4639001440A1400C00294211D001326E
:100800009342F2D201204042BFF35F8F00220E4B91
:100810001A608CF3108800280FDBC0BCB946B046C4
:10082000F8BD2C4310003470EEE7BFF35F8F002358
:100830002B608CF31088012040424346002BECD003
:100840000898FFF77BFFC0462C0100D0044A1078BF
:10085000431CDBB2172B00D9102313707047C0461E
:10086000EC0F002000B5054B83B001000093182267
:100870001F230348FFF79CFF03B000BDA0430010F7
:10088000CC1F00200021044B044ABFF35F8F02C33A
:100890009342FAD17047C046000100D0800100D0D9
:1008A000054B064A1360064A136053609360D36099
:1008B00013615361936170478080808000E400E0A1
:1008C00004E400E01F2318401E3B8340002905D0AC
:1008D000C021044A490053501360704780220149E7
:1008E0008B50FAE700E100E070B50D00EFF31086E1
:1008F00072B60F4A1368002BFCD0BFF35F8F0D4B0D
:1009000010309B6884001B590B4A934203D09D42D0
:1009100001D001F01BF8074B9B681D51BFF35F8F9F
:10092000BFF35F8F0022024B1A6086F3108870BD00
:10093000240100D000ED00E0C1010010F0B55746E1
:100940004E46DE464546E0B585B0060002911700EA
:10095000EFF3108B72B6674A1368002BFCD0BFF31D
:100960005F8F0025644B5D579A46002D00DAA4E0A6
:100970006B00624C03935B199B009846A146C144EF
:100980004B4652469B79103613705D4BB2009B6804
:10099000019299580B1B2F2B34D95A4B994200D0F6
:1009A000A4E0039B584A9C46584B6544AD006353F2
:1009B000434602336519E418554B0121043B1B1BC8
:1009C0001B055B0D13436B80524BEF71AB80FF2314
:1009D000AB71029BAB604B460B431900484B019A2D
:1009E0009B689950BFF35F8FBFF35F8F0022414B2D
:1009F0001A608BF3108805B0F0BCBB46B246A9461E
:100A0000A046F0BD01200A008243D379BB422FD813
:100A100045464E46130040491B1B5B415943090D97
:100A20003A4B63533A4B02356519043B5B1B1B057C
:100A3000354D5B0D2B4373800426B446E04444449B
:100A4000131F1B1B4C46A17102991B05A16049464F
:100A50005B0D2B43A380314BE77101431360BDE76E
:100A60005800C01880002018C679BE422BD9020059
:100A70000623D356002BF3DA101D82462848804601
:100A800004267642B446E14450464E46361A3005B6
:100A9000400D824656461C48957106439680039A3F
:100AA000944665441D4AAD00641922604246A37114
:100AB000029BA280E771A36090E700F047FF00254A
:100AC00053465D5754E7101D824690884005001537
:100AD00084464046D444664604302018301AE02646
:100AE0000005400D360230438046C9E700F02EFF76
:100AF00057E7C046240100D08A240020F00F0020D0
:100B000000ED00E0C101001000E0FFFF00A1FFFFC9
:100B10002010002001BDFFFFAAAA00000148804765
:100B200001BD0000F0B5DE4657464E464546E0B5ED
:100B30000C0083B0EFF3108972B65F4A1368002B84
:100B4000FCD0BFF35F8F5D4B9A68030010339F00AA
:100B5000D5595B4A904695423DD0A5424ED0594E5C
:100B6000AA1B2F2A37D8584A934612689446012266
:100B700061469246824011401F22104052468240F8
:100B8000924601918022514658468150BFF35F8FB3
:100B9000EFF305829346002A32D101232A009A43BB
:100BA0009068844208D17CE04B005B189B00F318EE
:100BB000986884422ED01A00062151560029F3DA93
:100BC00084424DD0019B002B1FD0C02251463E4B8A
:100BD000520099501960394B9B68DD51BFF35F8F0C
:100BE000BFF35F8F0022344B1A6089F3108803B083
:100BF000F0BCBB46B246A946A046F0BD1500EAE7E8
:100C00009342CAD000F0A2FEC7E7802351462E4A85
:100C1000D150E0E706215956002922DB4A0050183E
:100C2000800034188046A0689860E079D87106206A
:100C300020569871002825DBA488F01A6405241535
:100C400044440019E0240005400D2402204398800C
:100C500052181E4B9200B6181A781970B271B1E78B
:100C60001300594600290FD1FF3191711849918025
:100C700016490A789A71174A9B1B5B415A43120D19
:100C80000A709FE71448E2E7144A1549D21A083A55
:100C90005002400D01439980124952080A43DA80FC
:100CA00090E70621515613000029B7DA5A46002A68
:100CB000EAD14546DCE7C046240100D000ED00E063
:100CC000C1010010F00F002000E100E08A240020A4
:100CD00001BDFFFFAAAA000001BD00002A100020EC
:100CE00000F0FFFF00F8FFFF70B501240443EFF3AD
:100CF0000581EFF3108C72B6214A1368002BFCD0EB
:100D0000BFF35F8F1F4B05001F4AED1A6D416A4309
:100D1000120D1E4D8900AE6852B27658A6421CD004
:100D20000621595691421CD012215956914222D087
:100D30001E215956914220D02A215956032491420E
:100D400010D0134B19781A708171BFF35F8F002296
:100D50000B4B1A608CF3108870BDAB680D4C5C5067
:100D6000EFE700246100091989005B18FF219971E0
:100D700009499980E5E70124F4E70224F2E7C04637
:100D8000240100D0F00F0020AAAA000000ED00E02E
:100D90008A240020C101001001BDFFFF024B9C46C8
:100DA000614489000160704740000034F8B5134D7C
:100DB000134E2C00FF27B5421ED22368002B0FD004
:100DC000FFF744FD01002800FFF7E8FFA780BFF30D
:100DD0005F8F0834B4420FD223682500002BEFD177
:100DE000FFF734FD01002800FFF7D8FF2771BFF39C
:100DF0005F8F0834B442EFD3F8BDC046E818002036
:100E0000F018002010B50400FFF720FD01002000BD
:100E1000FFF7C4FFFF232371BFF35F8F10BDC046F0
:100E200010B504000120FFF71DFD044B9C466044F3
:100E300080002060BFF35F8F10BDC04640000034CB
:100E40000A4B1968EFF3108072B60A68002AFCD0CA
:100E5000BFF35F8F1B68BFF35F8F00221A6080F3C0
:100E6000108840BF002000217047C0467424002035
:100E7000F0B5DE4657464E464546E0B585B0EFF341
:100E80000582032313409A0011000392B64A525878
:100E9000904601229A409146B44B1A604B46B448A2
:100EA0004363434608229B5E9A46002B3DDA434645
:100EB0009B881BB2002B00DBA1E043469B79002BF3
:100EC00000D0F3E0434608241C5F002C23DB42469D
:100ED0005269630094461B19DB0063449C68DD681B
:100EE000631C00D10FE1A248039984466144826AE1
:100EF0000B69A61A9B1A9E4215D34A46036A1A42E8
:100F000011D09B4800F0C4FA241A8D41002D02DC58
:100F1000C4D1002CC2D040BF05B0F0BCBB46B24625
:100F2000A946A046F0BD0C61EBE7424652695B0062
:100F300093465344DB009B445B469E68DF6800F0A9
:100F4000A7FA801BB9410029B1DB002F00DAE5E0E8
:100F50005B46884A1B69934200D1D8E041465A4615
:100F60000820085E5288000410435A465169984789
:100F700004000D0023002B4300D1CFE0002D00DB47
:100F8000E8E0361BAF4134003D005B469C60DD600D
:100F90000021595E002900DA89E743465B69220097
:100FA0009C462B0048004018C00060448668C76813
:100FB000921BBB41002B00DA79E7434666460200EC
:100FC0000094019519810CE07B00DB19DB00F3181C
:100FD000009801999C68DD68001BA941002904DB89
:100FE0001A000023D75E002FEEDA5B461F805346BF
:100FF000138043469B881BB2002B00DA5DE7434613
:101000001A69EFF3108172B61368002BFCD0BFF39E
:101010005F8F43469B8842461BB29A4601235B4240
:1010200093801369BFF35F8F00221A6081F31088E9
:101030005346002B00DA40E743465B699C46082391
:1010400043449B4653465F0043465744FF000822F3
:101050009A5E67445E46BC68FD68002A19DB3B0067
:101060000094019567469C4604E01E000023F25E52
:10107000002A0BDB0098019953009B18DB00FB183A
:101080009C68DD68001BA9410029EEDA6346BC4676
:101090001F005346338000217B5E3A809A46002B26
:1010A000D0DA43469B79002B00D10BE70023424660
:1010B0009371434646460821595E08364B1C00D1C1
:1010C00029E747468C46556902E006004B1C17D0BD
:1010D0004B005B18DB00E8180A00E95E43881BB28E
:1010E000002BF2DA01235B42DC178360C4606245A7
:1010F000ECD031803B89944603803A814B1CE7D188
:10110000B8466446E1E66B1C00D0ECE6F9E65B46C7
:101110005C69200023699847002821D15B4642463C
:101120001B8813811269EFF3108372B611680029CE
:10113000FCD0BFF35F8F4246594652880A80424630
:10114000514651801269BFF35F8F0021116083F314
:101150001088ACE6064800F09BF924184D4114E7CE
:101160006568246806E7C046582400203C700540A6
:1011700000400540710E001070B52E4C2569002D01
:1011800004D00A212C48FFF709FE70BD2B4E032125
:10119000300000F073F9E660FFF758FB284B03229C
:1011A0009C46D02322701B061B6801216370254BCF
:1011B0006044A3600F238000206102206380636984
:1011C0004942A18019800231198647311D83585246
:1011D00018315A5275325C3999521832013199528C
:1011E00018320131995218320131995208351832AA
:1011F0009D520231183299521832013199521832E7
:1012000001319952183201319952183201319952F3
:101210001832013199520C4B0C49DC6001303562B7
:10122000FFF762FB01210320FFF74CFB084B1D6019
:10123000A7E7C04638100020742400200040054075
:1012400040000034FFFF100058240020710E0010F1
:101250003860054070B5C646010000B50469EFF37B
:10126000108C72B620680028FCD0BFF35F8F02207C
:101270000D5E48696C0080466419E4004444002D0A
:1012800001DB208848800869BFF35F8F0026066075
:101290008CF31088002D30DBE36063880598013300
:1012A00020615B0406985B0CA26060611A1C002B35
:1012B00021D090B22B04628018430A69EFF31086A4
:1012C00072B61368002BFCD0BFF35F8F8B8823802E
:1012D0008D800B69BFF35F8F00221A6086F3108840
:1012E0000B7801329A40CB6805498C4663441A60FA
:1012F00040BCB04670BD0122DBE701204042F7E769
:101300003C20000010B543890A14934233DD53009A
:101310009B184269DB00944604696344EFF3108C28
:1013200072B62268002AFCD0BFF35F8F5A88090486
:1013300094B2090C8A4208D00369BFF35F8F002280
:101340001A608CF31088002010BD80221202144312
:101350005C80012302698371BFF35F8F00211160FC
:101360008CF31088054902788C469340C2680120AE
:1013700062441360E8E70020E6E7C0463C20000036
:10138000F0B5CE46474680B504000D0083B0EFF3BC
:101390000587002F0DD0364A0020536A8B4203D3B5
:1013A000926A0130A24250D303B0C0BCB946B046E5
:1013B000F0BD304B9846DB689946434648461E7858
:1013C00000F066F80B00494602000436B60071587A
:1013D00020008E1A2900801A99418F4211DC0ED00C
:1013E00020BF234A0020536AAB42DDD3926A01300A
:1013F000A242D9D2E81A421E9041C0B2D4E7864236
:10140000EED900F04DF822002B00121A8B41002B70
:1014100020DB00230193184B2200009340462B0051
:10142000FFF718FF011E15DD114B2E005A6A954279
:101430001CD89B6AA34217D34046FFF763FF0C4AB0
:101440000020536A9E42AFD8D0E7581A421E9041FE
:10145000C0B2A9E7064A0020536AAB42A4D3926AFD
:101460000120A242A0D2C5E79542E5D120BFE3E723
:101470000040054038100020410E001010B5024A0F
:101480000248FFF773F910BDBC430010D01F0020C5
:101490000300416A0A00986A596A8A42FAD1704781
:1014A000034B596A0A00986A596A9142FAD1704707
:1014B0000040054070B504000D00124A536A19003F
:1014C000966A536A8B42FAD13000190024184D41B4
:1014D000AB4211D80ED02B000A494A6A9A42FCD37B
:1014E00007D1084A02E0516A994202D1916AA142A9
:1014F000F9D370BDA642EED9012301246442E51759
:101500005B42E9E700400540F8B5040006200D0005
:1015100000F076F9002842D0364B3749E2185342A2
:101520005A418023DB039C469205344B62441A6087
:10153000334B1A6010000B689843FBD12D4B802170
:10154000E3185A4253412F4A5B0049009952062042
:1015500000F056F92900C00000F02EFB0130C3094D
:101560001ED1402701226262A362266BF30722D4B8
:10157000E36A254B0620E51800232B60266300F064
:101580003FF93900800000F017FB7022E36A5A40EF
:101590007E2313402B601D4B23630323A364F8BDFC
:1015A0001B4A93421ED900231A4A1B4F6262A36250
:1015B000266BF307DCD5194B144AE3181A60656AE9
:1015C000A26A0620AD01AD1800F01AF9144900F026
:1015D000F3FAAD020100280000F0EEFA0021FFF757
:1015E00069FFC5E74006800E9F011A003F180300FF
:1015F000B9E7C0460080FCBF08C0004000E00040E2
:1016000000F00040782400202C10000001030000AE
:10161000FEFF0000FFFF0000C0FF3F003030000071
:101620004E0E0000F8B5DE464E4657464546E0B53C
:101630008B4605000A991800160000F0BDFA0A9BB7
:101640006C001F02324B64199C46A400644463681A
:1016500081469F4200D967602B1FDBB29846012B61
:1016600030D9C02380229B01E31812011A60294B54
:10167000AD0059599A4600291BD122687601724063
:10168000E0268023164042465B01E3181E60012AD3
:1016900030D9802380229B01E31812011A6053463F
:1016A0004A4667605A51F0BCBB46B246A946A046BE
:1016B000F8BD586900F080FA431C5800C018033880
:1016C000FDD2DAE75B46012BCBD1C02303229B017D
:1016D000E3181A60023AA3681A42FCD0E023226899
:1016E000760156401E4080230A4A5B019246E31869
:1016F0001E60AD005A462168514003220A401A601C
:1017000001225B469A40A3681A42FCD0C1E7C0465A
:1017100000800040D41F0020F0B546464F46D64614
:10172000C0B51F00344B44009C462418A4006444F8
:10173000636888461600FF2B02D880235B00636035
:10174000031FDBB29A46012B30D9C02380229B01B4
:10175000E31812011A60294B85005959994600294E
:101760001BD1226876017240E02680231640524643
:101770005B01E3181E60012A30D9802380229B017F
:10178000E31812011A6080235B0063604B465F51CF
:10179000E0BCBA46B146A846F0BD586900F00CFA64
:1017A000431C5800C0180338FDD2DAE74346012B2A
:1017B000CBD1C02303229B01E3181A60023AA3682D
:1017C0001A42FCD0E0232268760156401E40802356
:1017D0000A4A5B019146E3181E6085004246216873
:1017E000514003220A401A60012342469340A268F6
:1017F0001342FCD0C1E7C04600800040D41F002047
:10180000014B8000C0587047D41F0020F8B5040079
:1018100020481D0017000E0000F0CEF9010038002E
:1018200000F0CAF9069B29041B0319432368002B07
:101830001EDB194B194DE21853425A4180235B01BC
:101840009C461203164B62441A60164B1A6017002E
:101850002B689F43FBD1144B2660E2182123A06024
:1018600013602368002BFCDA0823E1601360F8BDE5
:101870003F2322681340B342DBD1A3681B051B0D35
:101880008342D6D1EE22E368D20213408B42D0D1FC
:10189000EDE7C046001BB7000040FDBF08C0004098
:1018A00000E0004000F00040043000008023024AC5
:1018B0009B000B43D362704700800540142310B592
:1018C0000100188804331B88984710BD162310B5F3
:1018D0000100188802331B88984710BDF8B54746A9
:1018E000CE4680B50F1E19D0142399460433040048
:1018F0000025012698464B461888434621681B88D8
:10190000984701C4431E9841013540420640AF420A
:10191000F1D13000C0BCB946B046F8BD0126F8E7A9
:10192000AA23064A1B0113608D235B00D360044980
:10193000044B19605368002BFCDA704700400240EA
:1019400000B0FA00006002407047C04610B5014880
:10195000FEF7F4FEE043001070B5074D074EB542A8
:1019600009D20024013E761BB60808CD9847230013
:101970000134B342F9D170BDA8410010E441001018
:10198000054B064A06491A60064A074B1A601000C2
:101990000B689843FBD1704700E00040BFCDFBFED1
:1019A00008C00040FE7F3C0000F00040044BDB6CB0
:1019B000002B03D18022034BD2021A607047C0462D
:1019C000000011504C201150044A054B1A60054A82
:1019D0001368DB018033FBD17047C046FFFFFF0176
:1019E00000F0004008C000404022034B9A675A674D
:1019F0001A67DA667047C04600F0014010B5FEF77E
:101A000041FF10BDF8B52D492D4C2E4D641AA6107E
:101A10003200302E00D930222800920000F0DEFB88
:101A2000BC2C41D80123711C08009C46264A302951
:101A30003DD92F272C196407E30FBF1B052F19D998
:101A4000302917D8002B36D0B1006A506146CC1A25
:101A5000F3189B006108EB18C900C9181A605A6096
:101A600008338B42FAD101232100994346188C4256
:101A70001AD0711CB300EA50302915D089006A5081
:101A8000B31C2E2E10D09B00EA50F31C2D2E0BD031
:101A90009B00EA50331D2C2E06D09B00EA50731D8C
:101AA0002B2E01D09B00EA50084B9D60F8BD2F33D0
:101AB0009B1B9C46BDE73000C8E7C04600010010F4
:101AC000C001001000000020C101001000ED00E086
:101AD000002310B5294C82B0A367FFF721FF012234
:101AE000274B1A60636C012BFCD10322254B1A6033
:101AF000224A936B012BFCD1013300930121224A2E
:101B000022480433FFF782FE052301210093204A77
:101B10002048FFF77BFE0022022104201E4BFFF726
:101B2000FBFD0022012105201C4BFFF7F5FD0022E3
:101B3000002107201A4BFFF7EFFD002200210820AB
:101B4000174BFFF7E9FD8023DB0000930022002103
:101B50000920134BFFF766FD0022104B00210620E1
:101B6000FFF7DAFD0420FFF74BFE0E4900F024F8E2
:101B700001000020FFF79AFE02B010BD0080004077
:101B80003CB0004030B00040002F68590080024057
:101B9000008C864700C00240001BB7004059730705
:101BA000006CDC0240420F0001480421014B184741
:101BB00050100020DD180010114A936F9B0813D2BB
:101BC00010665166002905D0FFE7FFE7FFE7516F78
:101BD000106F704704B5002801D00020C04302F008
:101BE000ABFA002104BDC046F0B5146E556E576FB8
:101BF000166FFFF7E5FF1466556657671667F0BD69
:101C0000000000D094464A4A926F9208624601D280
:101C100028E0C046F0B5464E346E756E776F366F6D
:101C200000F020F89446424A1466556657671667D6
:101C30006246F0BD94463E4A926F9208624601D2D7
:101C400054E0C046F0B53A4E346E756E776F366F1D
:101C500000F04CF89446364A146655665767166786
:101C60006246F0BD002B24DB11D000293EDA00B51E
:101C7000C943404200D1013100F038F8C943404225
:101C800000D10131DB43524200D1013300BD002AB3
:101C9000EBD1002801D1002905D00020C90FC907C8
:101CA00001D1C043410800B502F036FA00220023FA
:101CB00000BD00B500290ADBDB43524200D10133ED
:101CC00000F014F8C943404200D1013100BDC943BE
:101CD000404200D10131DB43524200D1013300F0D8
:101CE00005F8DB43524200D1013300BD002923D166
:101CF000002B18D1002A0CD0BC460D4F38667A66EE
:101D000000210023FFE7FFE7FFE77A6F386F6746A0
:101D10007047002801D00748010000B502F0FCF927
:101D20000022002300BD02000B00002000217047AC
:101D3000000000D0FFFFFFFF002B00D0BFE0130C1E
:101D400028D1002AE7D080B4114F39667A66FFE7C0
:101D5000FFE730B4040C7B6F396F1B0423433B66F1
:101D60007A66FFE7FFE7FFE7C04684B27B6F3D6F0F
:101D70001B0423433B667A66FFE7FFE7C046002368
:101D80002C042D0C7A6F386F00196941B0BC704774
:101D9000000000D0F0B594460025140E01D11202C7
:101DA0000835140F01D112010435940F01D19200AE
:101DB0000235D40F01D152000135D40B0134254F27
:101DC0007C66254C3C660E0C93B2FFE7FFE7FFE70D
:101DD0003C6F6643360C7703BE467343DF0B5B04F0
:101DE000C01AB941130C7343DB18C91ACE086643F5
:101DF000360CB64493B273431F0F1B01C01AB9418E
:101E0000130C73431F0B1B05C01AB941860D8F02BB
:101E10003E436643360C092D24DB520A7243801A76
:101E20007703460A6643360C16235B1BDE40DF4011
:101E3000BF1964466643821B7046043506330100B1
:101E4000D940A840C01900D30131A24206D20023D4
:101E5000F0BD0000000000D0FFFFFFFF121B0130AB
:101E6000F3D3F1E709277F1BFE406446A2B2724319
:101E7000801A00D20139220C7243130C1204821A08
:101E800099410B007046043513370100F940A84012
:101E9000801900D30131002B02D1A2420AD2F0BD39
:101EA000013000D30131121BFAD2013BF8D1A2421A
:101EB00000D2F0BD013000D30131121BF7E7F0B5BD
:101EC0001C0C00D080E00CB400251C0A04D11B02BD
:101ED000160E3343120208351C0B04D11B01160FDA
:101EE0003343120104359C0B04D19B00960F3343FE
:101EF00092000235DC0B02D192185B4101351C00C7
:101F0000971864410134464F7C66464C3C660E0C83
:101F1000FFE7FFE7FFE7C0463C6F6643360C7703F9
:101F2000BE4697B27743C01B00D20139C01B00D216
:101F300001399FB27743C91BC91B170C77437E0435
:101F4000FF0B801BB941CE086643360C0C2D33DBEA
:101F5000B644120B1F053A431B0B97B27743C01BC5
:101F600000D201399FB27743C91B170C77433E0457
:101F70003F0C801BB941860D8F023E4366432927E3
:101F80007F1BFE400C3D7746AF40BF1930BCA2B26C
:101F9000ABB272437343801A9941220C7243130C03
:101FA0001204801A994102000B000137001BA9415D
:101FB000F9D2781E0021F0BD0C277F1BFE4077462A
:101FC0007F0BAF40FF19E0E700245D1C07D0144FE2
:101FD0007D663966FFE7FFE7FFE7FFE73C6F95B2F5
:101FE0009EB265436643401BB141150C1E0C654310
:101FF000664336042F0C3E432D04401BB1419942E9
:1020000004D202000B0020000021F0BD01D190425B
:10201000F7D3801A994101349942F2D3F6E70000D0
:10202000000000D0FFFFFFFF132370B51D78012DC6
:1020300019D014DD1E48FFF749FC06001D48FFF7C4
:1020400045FC1D4C80223100200000F0C7F8022D15
:1020500006D01A48FFF732FC194B186070BD164CB9
:10206000184BA364F5E7174B134C23606360A36020
:10207000E36023616361A361E36123626362A3623E
:10208000E36223636363A363E36323646364A3641E
:10209000E36423656365A365E36523666366A366FE
:1020A000E36623676367A367E367A364D1E7C0467A
:1020B0005344000053460000701A00204C330000C7
:1020C00070240020C920001007B5604601880A0A64
:1020D0000230DF2AFAD1C9B2820804D302884088CC
:1020E0000004104300E00068014A5050039007BD0F
:1020F000701A002051434343C9188C46110C83B217
:102100004B4310B4040C614392B280B2504362431B
:102110001C041B0C001910BC59411304120CC018EC
:102120005141614470470000132310B512481C78D8
:10213000FFF7CCFB0100012C0AD003DD80220F4801
:1021400000F04CF80E48FFF7B9FB0E4B186010BDBD
:102150000A4C5422200000F041F80B4B6365A36544
:10216000E36523666366A366E36623676367A36725
:10217000E3672362E361E5E753460000701B00203C
:102180004C330000702400208D21001007B56046FC
:1021900001880A0A0230DF2AFAD1C9B2820804D3C0
:1021A000028840880004104300E00068014A505053
:1021B000039007BD701B002010B501F005FE10BD97
:1021C00001480421014B184760100020DD18001061
:1021D000014B1B681847000060100020014B5B6832
:1021E000184700006010002010B5FFF7E5FF10BD94
:1021F00010B5002800D110BD00F04AF9FBE7C04639
:1022000010B5094A0300146884B0002C08D00122DC
:1022100000910648524203A9A047012004B010BD16
:1022200000F082F90020F9E750240020F12100108D
:1022300000BEFDE7094A03001068002805D00849E0
:10224000C3188B4207D81360704706480449C31867
:1022500010608B42F7D901204042F5E70C200020A6
:10226000000004208C24002010B5FFF7E1FFC046D9
:1022700070B5FFF771FB074D074EB54209D2002438
:10228000013E761BB60808CD984723000134B342BF
:10229000F9D170BDE4410010F0410010030010B509
:1022A000080011001B68984710BDC046F0B54646AF
:1022B0004F46D646C0B5437D80460E001700002B22
:1022C00046D0002A3FDD4B1E9946244B01250024B1
:1022D00000209A460DE04B461B5D0D3B5A42534190
:1022E000325DDBB20A2A0BD02B00013401359F424C
:1022F0001ADD002CEFD14346325D1B7D0A2AF3D153
:10230000002BF1D1A04204DA4346211A1B68301891
:102310009847434650461B680221984701342800DD
:102320002B0001359F42E4DC874204DD4346391A25
:102330001B6830189847F619013E33780D3B5A4216
:10234000534142461375E0BCBA46B146A846F0BDBB
:102350000368110030009847F5E7C046D8440010E4
:10236000F0B5DE4657464E464546E0B585B0170007
:102370001C0006000D00FFF793F80023314A1218E5
:102380004B41002B59DB304908008A4601F0ECFE36
:1023900001906B1C03D1300001F042FD0500002CC0
:1023A00026D12A4B98462A4B1C68002C15D0002FAA
:1023B00021D1284F02E02469002C0ED02368002B85
:1023C000F9D03B68002B01D0A342F4D120002A00B1
:1023D0003100C0472469002CF0D1019B002B28D18B
:1023E000280005B0F0BCBB46B246A946A046F0BDE9
:1023F000194B9846D7E7174B994602ABDF1D0A23C6
:102400009B4602E02469002CE7D02368002BF9D01A
:102410004B461B68002B01D0A342F3D12A003100A8
:102420002000C0475B460122390020003B70C047B6
:10243000E8E7504601F060FED2E70122074B524226
:10244000A1E7C04640420F00E81800209D2200107E
:10245000FC1F002008200020AD220010FFFFFF7F9E
:102460000A4A1368002B05D10CE01A001B691032D0
:10247000002B07D09842F8D1002902D103691360DC
:10248000016170470029FCD01060FAE7FC1F0020B2
:10249000F0B5CE46474680B583B06B460600DD1DDD
:1024A0002870FEF7FDFF00231A4A12184B41002B3B
:1024B0002BDB19490800884601F056FE174B814670
:1024C0001C68002C14D0164F02E02469002C0FD099
:1024D0002368002BF9D03B68002B01D0A342F4D134
:1024E000200001222900FFF7E1FE2469002CEFD132
:1024F0004B46002B05D1300003B0C0BCB946B046F6
:10250000F0BD404601F0F8FDF5E70122054B5242CF
:10251000CFE7C04640420F00E8180020FC1F002013
:1025200008200020FFFFFF7F70B5040001F078FC59
:1025300001230100050001222000FFF711FF084BD5
:102540001C68002C06D06368002B05D098472469CE
:10255000002CF8D1280070BD2469002CF3D1F9E7D4
:10256000FC1F0020F0B50D1E15DD0E4B0D271A685F
:102570000D4B4519D31859424B410C495B005E5E27
:1025800020210478A64207D093691942FCD101307A
:102590001460A842F5D1F0BD93691942FCD11760CF
:1025A000F2E7C046802400200080FCBF7824002091
:1025B00030B504000D1E24DD002010211A4B013C13
:1025C0001A689369194217D1013093691942FCD1F5
:1025D000136823548542F4D1144B1B68002B0AD096
:1025E00050239363516B183B0B4011498C46624456
:1025F0001360002814D030BD0C4B1B68002BEFD1AA
:10260000F7E70A4B1B68002B0AD05022064B1B68C9
:102610009A63596B183A0A4005498C4663441A601C
:1026200003204042E7E7C04680240020C41F00206A
:1026300034100000064B10B51B68002B06D000219B
:10264000044A12689163044A1068984710BDC04656
:10265000C41F002080240020C81F00200822034B34
:1026600019688B691A42FCD17047C046802400204B
:1026700070B51B4E1B4B32680500D31858424341BE
:1026800014331C00002D04D0174B1A68002A11D0F7
:1026900070BD154E3368002BFAD0002120009563E1
:1026A000FEF710F920001149FEF73CFA104B356097
:1026B0001D60EDE71D600E4B200019600B49FEF711
:1026C00013F901212000FEF7FDF8502233689A63C8
:1026D000596B183A0A4007498C4663441A60D7E799
:1026E000802400200080FCBFC41F0020352600107D
:1026F000C81F00203410000070B50C4E0D001C00E7
:102700003060002A03DB02211000FDF7BDFF002C22
:1027100003DB02212000FDF7B7FF29003068FEF738
:10272000F3FE01210248FFF79BFE70BD80240020CC
:102730007010002010B5024800F00CF810BDC04623
:102740006824002010B508220149FFF747FD10BD9D
:102750006824002030B5002589B00400092200213A
:1027600001A80095FFF734FD0922002105A8049572
:10277000FFF72EFD4B236A466846137004A90D220D
:1027800001F0B2FC1521082220006944FFF726FD64
:1027900009B030BDF8B500F051F90C23194DFF22F6
:1027A000AB6705201849FEF7C9F8184C40220021F4
:1027B0002000FFF70DFD4027002301262121144AA8
:1027C00066702783A260136063545F31618445396A
:1027D0006354104A10496360E2602787A1620B606E
:1027E0006362E26201F090FC80239B052E64EB643F
:1027F00090230A4A0120EA508022094B5202DA64EF
:10280000F8BDC04600001150050500201020002032
:1028100084001050000110508000105010D00100B2
:102820000020115010B501210520FEF74BF810BD16
:1028300010B500220021024800F020F910BDC0466A
:102840003020002080219022034B89029950802261
:102850005201DA647047C04600201150044B1970D1
:10286000002904D080219023024A8902D150704768
:1028700087240020002011500B785B0602D14B7892
:10288000052B00D070478A78014B1A60FAE7C046E2
:1028900000001150F0B5C646C87800B58007830F18
:1028A0001800012B61D08F780C794B797F211B02A6
:1028B000394023434E00FC09334D32195201AA1806
:1028C000977001276740577000275B055B0DD77035
:1028D0001383D076B846CA00012C32D02B4FBC46A9
:1028E0008F016244BC46AC446746BA6047461760F5
:1028F000002932D0264AC9009046624641445160C0
:102900003F223F339343022838D0224937190A68BF
:102910007F01D3180B602049EF19FA608B422FD842
:10292000341964012D19EB7E1C499B064A40134360
:1029300080220120120613436A68136080BCB846E7
:10294000F0BD174FBC468F016244BC46AC4467469D
:10295000BA6247461760002909D1002364012D1986
:102960006B60104B0120EB60E8E70020E6E70B4AC4
:10297000C9009046624641445162C1E75B00C4E72A
:10298000FEF7E4FFFA68CBE7102000208400105027
:102990000400105054240020FF0F1050000010506D
:1029A000800010500001105010B501F0ADFB10BDBB
:1029B00010B57F200C0020404000E40911000019F0
:1029C0001A00034B4001C01800F058F8012010BD58
:1029D000102000207F22130010B50B400A420BD0BC
:1029E000C9098022580040180649400140181201C8
:1029F000002101F0D1FB10BD02220348C909521A7F
:102A00008266EEE710200020002011507F22100087
:102A100010B508400A4200D110BD0023C90940008A
:102A2000401804494001081800220349C37001F00E
:102A3000B3FBF1E710200020FFF7FFFF80220A4BD5
:102A4000520410B51A60094B09491A6010000B684E
:102A50009843FBD18022002152010648FFF7B8FBC2
:102A60000922054B5A6710BD00E0004000F000400D
:102A700008C00040000010500000115070B5837E67
:102A800004000D001600002B17D10023E382013350
:102A90002000A682A376256101F05EFB002804D009
:102AA00080219023084A8902D150200001F03CFB8C
:102AB000002805D00123237770BD01F065FBE4E712
:102AC000200001F059FBF7E700201150002070476B
:102AD0007047C0467047C0460020704700207047CE
:102AE00000207047024B5878431E9841C0B270478F
:102AF000A81D0020024B18784007C00F7047C04641
:102B0000A81D0020094A10B513785B07DC0F002BC5
:102B100005DA182312781340182B02D00024200065
:102B200010BD034B1878FFF78DFEF8E7A81D0020B5
:102B3000A4100020F0B546464F46D646C0B52E4BF1
:102B4000814698461B780E000124FF2B40D10029B6
:102B50003DD0002154222948FFF73AFB0022284C9F
:102B6000284B20001A70FEF74DF9274B1C60274CAC
:102B700020001430FEF754F9200001F0D1F8244B66
:102B8000244D1C60244B002B04D0280000E000BF23
:102B9000224B1860224A002492462B781F4F0EE0E9
:102BA0003A68630194466344002B10D05B68002BA5
:102BB0000DD0984701342B78E4B2A3420ED39C4247
:102BC000EED3E31A5B0153445B68002BF1D1002480
:102BD0002000E0BCBA46B146A846F0BD43464A468E
:102BE000310048461A70FFF7D5FD041EEFD0484665
:102BF000FFF718FEECE7C046A4100020A81D002037
:102C0000A01D002088240020FC1D0020881000202A
:102C1000001E00208624002000000000C41C0020AC
:102C2000E0450010F0B5DE4657464E464546E0B555
:102C3000BC4B87B01B78FF2B00D124E1BA4D03AC0D
:102C40002E687269EFF3108172B61368002BFCD006
:102C5000BFF35F8FB1613000210000F0CDFF7269DA
:102C6000B369BFF35F8F0021116083F310880028E0
:102C700000D108E16378082BE2D8AC4A9B00D35816
:102C80009F466368002BDBD0A0689847D8E77F2376
:102C90002179A74E0B405800CA093618B6183200E1
:102CA000012730321079B843107110790337B843D7
:102CB0001071002B00D1EFE09E4A337D12789342D1
:102CC00000D3DEE09C4A5B011268D318002B00D1D0
:102CD000D9E09E6962792078A368B047B0E7974A47
:102CE0001378002B00D1CEE01378013BDBB21370D8
:102CF0001378002BA4D101228D4B01201B788C4925
:102D000013438B4A8A4E13703423D25C8243CA54D5
:102D1000CA5C04218A43F2540133F25C8243F254C8
:102D2000F25C00208A43F254267800F063FC6022B3
:102D300023791A40602A0DD0402A00D1B4E0DB0686
:102D4000DB0E012B00D101E1022B00D1C6E0002BEC
:102D500000D1B5E020780021FFF73CFE80212078EB
:102D6000FFF738FE6CE7724E3378DB0700D467E775
:102D7000FDF7A6FB64E76E4BDB78DB0700D45FE76B
:102D80006068FFF7A7FE5BE7694E3378DB0700D486
:102D900056E730780007C00FFDF78AFB50E7684A16
:102DA000644F23789246644A984691463A003B78AD
:102DB0000026474690460FE04A4612687301944643
:102DC0006344002B66D0DB683800984743460136E1
:102DD0001B78F6B2B3423ED3B342EDD8F31A5B018F
:102DE0005344F0E7564A534F23789246524A984646
:102DF00091463A003B780026474690460FE04A4607
:102E00001268730194466344002B1FD0DB683800BE
:102E10009847434601361B78F6B2B34205D39E422B
:102E2000EDD3F31A5B015344F0E7414E54220021E5
:102E30003000FFF7CDF91022FF21301DFFF7C8F950
:102E400030002022FF211430FFF7C2F900F0C8FB48
:102E5000FDF728FBF4E6364E542200213000FFF740
:102E6000B7F91022FF21301DFFF7B2F93000202200
:102E7000FF211430FFF7ACF900F0B2FB2379B370F7
:102E8000DEE693420ED007B0F0BCBB46B246A94680
:102E9000A046F0BD264EEFE762792078A36800F0E7
:102EA000BDFBCDE6264B14E7264800F0A3FB01212D
:102EB000300004AAFFF70AFE002800D0C0E649E768
:102EC000202A00D143E1002A00D043E76379092B8F
:102ED00000D93FE71C4A9B00D3589F467023217AB4
:102EE0000B4200D036E77F27CB0999460F40104BA5
:102EF0007F001048DB194B441B7D0078834256D37A
:102F000000D040E10E4B9846002A00D140E14346F4
:102F1000586900F06FFB4346012130005B6904AA49
:102F20009847C9E7A4100020001E00203845001073
:102F3000A81D002086240020C41C00208824002016
:102F4000E0450010CD2A00105C450010237A0F2BBD
:102F500000D9FFE6D74A9446D74A63441B791278D2
:102F6000934231D300D0F5E6D44F786900F042FBAC
:102F7000012130007B6904AA9847002800D05FE651
:102F80006022170023791F401A4200D0E2E66379DD
:102F90000A3B012B00D9DDE600F02CFB63790A2BFC
:102FA00000D14FE1300004A900F0A4FA48E6C4487B
:102FB0005B01006880469844002A00D1E8E043465F
:102FC000002B00D1C6E6A2E7BD4A5B011768FF18D7
:102FD000002F00D1BEE6C8E7A3799846B54B5B78D1
:102FE0009845DFD0B34B5B78002B00D04EE14246D2
:102FF000B04B5A70002A00D145E140460138C0B2BA
:10300000FDF796FA002800D139E14378022B00D071
:1030100035E10121C2790700931152110B400A409A
:1030200012015B011343A34A2F311278B3468A433E
:103030001343A04A09371370C37882781B021343E5
:10304000C31801939E4B9946019BBB4200D854E1A3
:1030500001227B7890460B2B04D1FB7898463B7875
:10306000FF187B78042B00D009E1019B0026DB1BB5
:103070009BB29A46904B1B7819E04A46126873013E
:1030800094466344002B00D1F9E05246390058467B
:103090001B699847082803D95346834200D3DAE0D6
:1030A000854B01361B78F6B2B34200D2E7E0B3425B
:1030B000E3D8824AF31A94465B016344E5E77D4B0B
:1030C00002AA5B78023213703000012304A900F0D9
:1030D00029FAB5E5E088030AC0B20F2B00D939E61A
:1030E00078499A008A58974604A800F089FA300077
:1030F000A179FFF79DFB02226E4B1B7813436D4AAB
:1031000013709DE5E388012B00D023E60822694B6C
:103110001B789343674A137044E70220654B197884
:1031200002AB9A1C8B068908DB0F01400B4313800E
:103130003000022304A900F0F5F981E5E388012BB2
:1031400000D007E608225B4B1B781343E2E7237AA3
:103150000F2B00D9FEE5574A944663441F79564B1E
:103160001B789F422BD2564A7B011768FF18002F0D
:1031700000D1EFE5786900F03DFA012130007B696C
:1031800004AA984798E6002A00D0E3E50023984671
:1031900063799A4602239B4653465A469343012B32
:1031A00012D05346002B00D0D4E5424B02AADB19C3
:1031B0004B4430331B7902329B07DB0FB7E79F424A
:1031C00000D0C7E53D4FD5E7E388002B12D1534629
:1031D000012B26D03C4B1878FFF7FCFB0221354B26
:1031E000DB194B4430331A790A4301211A711A79D9
:1031F0000A431A714346002B00D121E5586900F0BB
:10320000F9F9434604AA5B69012130009847002080
:1032100000F0F0F93523274AD35CDB0700D50FE532
:10322000C0E6294B1878FFF7F1FB5946214BDB1913
:103230004B4430331A798A4351461A711A798A43BA
:103240001A71D7E702AB9A1C3000012304A917704A
:1032500000F068F9F4E443468246002B00D186E092
:10326000BA78D318DBB205E00132D2B20E719342C4
:1032700000D17CE00F4989180879FF28F4D0002399
:103280000C4A537066E5FDF70DF98BE6300000211E
:10329000FFF7E4FA3000FFF787FB00229146084A67
:1032A000044B93464A469B78034F9A46B1463B7877
:1032B00016001AE0A81D002086240020E04500101A
:1032C000C41C002084450010A41000205A46126837
:1032D000730194466344002B6BD0DB6848469847E3
:1032E00001363B78F6B2B3424ED39E42EED3324A19
:1032F000F31A94465B016344EFE75E46FDF7CAF8B4
:1033000050E6FFF7EBFB021E00D123E530001378F7
:1033100004A900F007F9CFE52189FDF70DF9021E98
:10332000F4D117E5022B18D0FFF7DAFB021E00D10B
:1033300010E5D37891781B020B43300004A900F00C
:10334000F1F8B9E5FDF7ECF8021E00D102E5122311
:10335000300004A900F0E6F8AEE5FDF7E9F8021E3A
:10336000E7D1F7E4FFF7B8FB021EE2D1F2E4330045
:1033700039005246114800F025FC114B57441B7888
:10338000B34200D360E67AE7542200210D48FEF7ED
:103390001FFF0C4B1022FF21181DFEF719FF2022E2
:1033A000FF2106484E46FEF713FF5246054B9A7022
:1033B0001DE64E46F9E7C046E0450010BC1D002062
:1033C00086240020A81D0020F8B557464E46DE464C
:1033D00045460C00E0B516001F00002A3CD07023C3
:1033E00098461E4B00259B461D4B9A461AE05B46AD
:1033F0001B78200099465346997800F0A7FB0028D7
:103400001CD021004846FFF745FA002816D0A378C3
:10341000DA09012A19D00A9A013513702378E418C1
:10342000B54219DA6378052B08D1E3789B079B0F27
:10343000BB4203D14246A3781A42D8D00020F0BC48
:10344000BB46B246A946A046F8BD0B9A013513709B
:103450002378E418B542E5DB0120F0E7A410002052
:10346000A81D0020074B080019687F2310B50340F2
:10347000C0095B0034301818034B181800F03EFBED
:1034800010BDC046FC1D0020A81D00207F2070B587
:1034900008400F4C4000CD092418641930342579B8
:1034A0000020ED0700D570BD012625790948354378
:1034B00000782571FFF77CFA0028F4D101222379E6
:1034C000934323712379033293432371EBE7C0467F
:1034D000A81D0020A41000207F22CB090A40044927
:1034E00052008918C91830310879C007C00F7047D9
:1034F000A81D002070B50A4E0500300008220C00FF
:10350000FEF76CFE00237F21F3602278B3609142C6
:103510005B412800D90100220023FFF7B7FF70BDEF
:10352000081D0020F8B5CE46474691462A4E80B584
:103530000822070030000D009846FEF74FFE4B466C
:10354000B3600023F381EC79A97924020C43231C96
:10355000444500D943469AB29046B381002C13D01B
:10356000002A1FD04B46002B34D0131C402A1FD8F2
:103570009BB2984633787F2B20D80021174A4346C8
:103580003800FFF783FF09E07F222B7838009A424A
:10359000644100230022E101FFF778FFC0BCB94677
:1035A000B046F8BD33787F2B11D980210022E6E7A1
:1035B00040239BB2984633787F2BDED9074C424696
:1035C00049462000FEF70AFE80212200D7E70021AD
:1035D0000022D4E70020E1E7081D0020C81C0020DD
:1035E00010B5142200210248FEF7F2FD10BDC046BE
:1035F000081D0020014B18617047C046081D0020BF
:1036000010B5054C010008222000FEF7E7FD00235D
:10361000A360E36010BDC046081D0020F8B5394C1A
:103620001D0023780600DA09C9098A4210D000205B
:10363000002D00D0F8BD21003000FFF71DF92369EF
:10364000002B42D022000321300098470120F1E7EF
:103650007F2B06D8A068002839D02A002A49FEF717
:10366000BDFDA368E28959195219E38892B2E2813B
:10367000A160934214D03F2D12D9A589A81A071C26
:1036800080B240282FD82378BFB27F2B2DD80021BD
:10369000AA4235D01C4A3B003000FFF7F7FEC9E7CD
:1036A0002369002B05D02200022130009847002812
:1036B0000FD07F220021237830009A424941002315
:1036C0000022C901FFF7E2FEB4E70120B2E70020C3
:1036D000B0E700213000FFF77DF930008021FFF7CF
:1036E00079F90120A6E74027CDE7AA4207D0064C8A
:1036F0003A002000FEF772FD80212200CBE78021F6
:103700000022C8E7081D0020C81C00207047C046E2
:10371000012070477047C0467047C04643001818E4
:103720000C4B800010B518184478FFF7DBF900281F
:1037300001D1002010BDFFF7DDF90028F9D1002CE0
:10374000F7D021000020FFF7C7FE01235840C0B288
:10375000F0E7C046901D0020F0B583B06D460E0026
:10376000190000232A70040006226B70002926D05D
:10377000A81CFEF733FD002C02D0002003B0F0BDE2
:10378000114F00207978FFF76DFE0028F5D00F4C1F
:10379000002E0ED020000822290026741130FEF7DA
:1037A0001DFD09232200797810320020FFF76EFEFC
:1037B000E4E72300103306CD06C30823F2E7002117
:1037C000A81CFEF705FDD6E7901D0020601D002017
:1037D00010B50C2200210248FEF7FAFC10BDC046CD
:1037E000901D00200120704710B50C2200210248D6
:1037F000FEF7EEFC10BDC046901D0020F0B54B79E1
:1038000006000D0083B0032B0AD10879C400241AE6
:103810001234A4B2944203D8194F7B78002B03D002
:103820000024200003B0F0BD097869184B78212BE3
:10383000F6D1B9600B780200C9187B1C0193BB1C40
:10384000009330000323FFF7BFFD0028E8D0AB79D9
:10385000012B01D1EB79FB700123BB71AB78BA6806
:103860003B70137AD1791B020B43B978BB800029D6
:10387000D7D0044A102330002032FFF707FED0E7EC
:10388000901D0020601D00201F23F0B51400127849
:10389000060083B01340012B18D1614F20793B788B
:1038A000984213D1602318001040134208D02028FA
:1038B0000CD163780B2B09D85A4A9B00D3589F46EA
:1038C0000125012903D16378062B03D000252800A8
:1038D00003B0F0BDE378212B00D183E0222BF5D19A
:1038E0000020FCF721FE21000200BB883000FFF71A
:1038F00019FEECE7012912D001250329E7D1A178AF
:103900000020B971FFF702FFE1E701250129DED1AF
:10391000E1780020F971FFF7FBFE0028D6D02100E6
:103920003000FFF7E7FD0125D1E7012965D001252A
:103930000329CCD1E079A37900021843E278A17879
:10394000041C102800D91024374BA4B2002907D03A
:10395000012805D91878884202D1013CA4B201336C
:1039600000200094FCF778FD0125B0E7012501292E
:10397000ADD1012321003000BA1DFFF7D3FDA6E72A
:1039800001250129A3D1012321003000FA1DFFF7F1
:10399000C9FD9CE70125012999D1E379A0791B0292
:1039A0000343E278A178181C102B00D9102080B2B4
:1039B000002930D0012B2ED901251B4F0138397039
:1039C00080B27B1C00900020FCF744FD2D18ABB2A8
:1039D000002B00D17AE73A0021003000FFF7A2FD6A
:1039E000012574E7BA68002A00D16FE72100300092
:1039F0001378FFF797FD050069E7E379A2791B02C9
:103A00001343102B00D961E721003000064AFFF76D
:103A100089FD01255BE7044F00253B00D2E7C04646
:103A2000901D002000460010601D002070B51F4D45
:103A30000400A87882B0884218D16978814219D0F0
:103A4000002A21D11A4E9BB232002032009300216D
:103A5000130000200222FCF7FFFC3200102320009C
:103A6000A9782032FFF712FD02B070BD6C780020FB
:103A70008C42F9D1002A10D10D4900209AB21031A0
:103A8000FFF748FE0120EFE7094E02213200002037
:103A90009BB22032FFF740FEDFE7054A00200121FC
:103AA0009BB21032FFF738FE0120DDE7901D0020A9
:103AB000601D002000B5030083B0002910D0002055
:103AC000012B07D80A78002A04D00B48C2540120E1
:103AD000012A01D003B000BD1800FFF72BF8F9E769
:103AE000012301A900200B80FFF724F80028F1D062
:103AF0000122014B1A70EDE79C1D0020037870B580
:103B0000DB0704000E00DD0F002B17D103785B07E5
:103B100001D5280070BD01213000494200F014FB9E
:103B20002378DB07DD0F002B0AD123785B0708D44D
:103B30000422237801251343237002E00025E8E7DF
:103B40000025300000F0D8FAE3E7C04610B543790D
:103B500004791B0223435B055A0DC3789B079B0F17
:103B6000022B05D0032B15D00020012B08D010BD4F
:103B700002291CD00020402393424041C0B2F6E706
:103B800002394B4259410D4B9C46614491424041A0
:103B9000C0B2ECE702394B425941F02300204942C0
:103BA0009B001940403191424041C0B2DFE7044BD5
:103BB000D3185A425341D8B2D9E7C046FF03000098
:103BC00000FEFFFF8A1870B5914207D27F264C781D
:103BD000052C04D00C7809198A42F8D870BD34003D
:103BE0008D782C4064000419ED0963550C7809198F
:103BF0008A42ECD8F2E7C04670B5040000690E00B6
:103C0000002803D00121494200F09EFA25896089ED
:103C1000A288A9B283B285422CD3CD1AADB2002DB1
:103C20002ED0AA4208D2914231D38B1A9BB2638123
:103C30009A4203D89B1A9BB29A42FBD9E288216828
:103C40005204520C53433000C918FEF7C7FA618979
:103C500001254B1C9BB2A288994214D90023520023
:103C60009B1A9BB220696381002801D000F044FABE
:103C7000280070BD5500ED1A4D19ADB2002DD0D100
:103C8000002563899BB252009342EBDBE8E7891879
:103C90008BB26381CCE7C046F8B50400C0680E0063
:103CA000002803D00121494200F04EFA25892089DD
:103CB0006189A288ADB283B28FB2884228D3DB1B60
:103CC0009BB29A4209D8E779FF0906D1E06800283B
:103CD00001D000F011FA3800F8BD2B00954203D353
:103CE0009B1A9BB29342FBD2E28821685204520C89
:103CF0005343C8183100FEF771FAA2886B1C9BB2BF
:103D000052009D4209D99B1A9BB201272381DDE70E
:103D10005100C91B5B189BB2D3E79342F5DBF2E776
:103D200010B50400C068002803D00121494200F00A
:103D30000BFA2069002803D00121494200F004FA5F
:103D40000023E06863812381002801D000F0D4F9CA
:103D50002069002801D000F0CFF9012010BDC04635
:103D600030B583B0050068460C00FEF7EBFC072C6D
:103D700000D90824220069462800FEF72FFA200007
:103D800003B030BD10B51920FCF7B2FCD02380225F
:103D9000E1211B0692045A620448054B0022186078
:103DA00049020123FEF7A8FC10BDC04600400340B5
:103DB0007C240020D02380221B069204002801D0FE
:103DC0005A6170479A61FCE710B5034B010018680F
:103DD00000F0A2F810BDC046A810002010B502489F
:103DE00000F07CF910BDC046941C002010B50248BC
:103DF00000F076F910BDC046941C0020002370B579
:103E0000064D040008002B60FEF714FA431C00D096
:103E100070BD2B68002BFBD02360F9E70420002045
:103E200010B583070AD00300032102E001330B42DF
:103E300005D01A78002AF9D1181A10BD03001968A4
:103E40000C4A0D4C8A188A4322420FD15968094AFC
:103E500004338A188A43224208D15968054A043338
:103E60008A188A432242F1D000E001331A78002AEE
:103E7000FBD1E1E7FFFEFEFE80808080F8B50C00FC
:103E80000500FFF7ABFF204FBB685E6803239E432E
:103E90001E4B341B9C466444240B013C1133240309
:103EA0009C4207DB00212800FFF7A8FFBB689B1995
:103EB000984204D02800FFF799FF0020F8BD2800A1
:103EC0006142FFF79BFF431C0DD00122BB68361BEC
:103ED00016435E600E4B28001A68141B1C60FFF727
:103EE00085FF0120EAE700212800FFF787FFBA6875
:103EF000831A0F2BDEDD07490968401A0449086060
:103F000001210B435360D5E7D8140020EF0F0000C8
:103F1000981C0020E0180020F0B5C64605000C00F3
:103F200000B500294FD0FFF759FF210008394C6830
:103F3000012622000320B2438F187B688343624826
:103F400098468368BB426AD043467B6026421ED1B6
:103F500008239C460C688444091B12198C6864452C
:103F60004FD0CB68E3609C604346FC1864683442E1
:103F700011D1BB68554C4244A34200D17EE0FC689D
:103F8000DC60A360012313434B608A5006E0FC18F9
:103F900064683442EDD016434E603A6080239B0043
:103FA0009A4213D25409D3080122A2404468DB008C
:103FB0002243426018188368C8608B608160D960B2
:103FC0002800FFF713FF80BCB846F0BD530A042B4E
:103FD0003ED89409260039343836E40004192368A1
:103FE000083C03279C4242D05868B843904202D90B
:103FF0009B689C42F8D1DC68CC608B60A160D96082
:10400000DEE74346F8184068304257D1FB68B8688D
:1040100042441643C36098604E608A50D0E7130054
:104020004344264206D10A68891A8C689B18CA68DC
:10403000E260946001221A434A60254A8160126856
:104040009A42BDD8234B28001968FFF717FFB7E73E
:10405000142B07D9542B1AD8140B26006F346E3644
:10406000E400BBE71E005C335B36DC00B6E70122F0
:10407000B610B240466832434260BDE7D9609960ED
:10408000CB608B60012313434B608A5098E7AA24CE
:104090006400A34205D8D40B260078347736E400B8
:1040A0009CE70D4CA34205D8940C26007D347C3649
:1040B000E40093E7FE247E26A4008FE73300134339
:1040C0004B603A607CE7C046D8140020E014002022
:1040D000E4180020C01C0020540500007047C046B2
:1040E0007047C046F8B5C04601B40248844601BCDA
:1040F000604700BFDD02002001B40248844601BCD5
:10410000604700BFED01002001B40248844601BCB5
:10411000604700BFB103002001B40248844601BCDF
:10412000604700BF510F002001B40248844601BC23
:10413000604700BF2D0C002001B40248844601BC3A
:10414000604700BF510F002001B40248844601BC03
:10415000604700BF5D01002001B40248844601BCF5
:10416000604700BF050C002001B40248844601BC32
:10417000604700BFC100002001B40248844601BC72
:10418000604700BFBD0C002001B40248844601BC5A
:10419000604700BF610C002001B40248844601BCA6
:1041A000604700BF6D0C002081190010AD19001090
:1041B000A91B0010C1210010292000102921001086
:1041C000D11A0010C9190010E9190010FD190010CA
:1041D000AD0D0010051A00107911001049190010DA
:1041E000A108001035270010B1020010D104001002
:1041F0000000000000000000D1020010D5020010F5
:10420000001E0122025203510450054F0608070701
:10421000081609090A0C0B0E0C0D0D0F0EE00FE22B
:10422000102C11E1121D131B1406151916281A293A
:104230001BE51C2A303132333435363738394142A8
:10424000434445460000000054696E7955534200CE
:1042500054696E7955534220446576696365000060
:104260000904000009022200010100A03209040033
:1042700000010300000009211101000122EF0007E5
:10428000058103100005000012010002000000403B
:10429000FECA0440000101020301000005010906F5
:1042A000A1018501050719E029E7150025019508F9
:1042B000750181029501750881010508190129051B
:1042C0009505750191029501750391010507190086
:1042D0002AFF00150026FF00950675088100C0051D
:1042E000010902A10185020901A10005091901299D
:1042F000051500250195057501810295017503815C
:10430000010501093009311581257F950275088164
:104310000609381581257F950175088106050C0A67
:1043200038021581257F950175088106C0C0050CEE
:104330000901A1018503150026FF0319002AFF03C7
:10434000950175108100C005010905A101850405CD
:10435000010930093109320935093309341581253C
:104360007F95067508810205010939150125083573
:1043700000463B01950175088102050919012920B4
:1043800015002501952075018102C0000A2A2A2AFC
:104390002050414E4943202A2A2A0A000A000000E0
:1043A0004E6F207370696E6C6F636B732061726502
:1043B00020617661696C61626C65000048617264BD
:1043C0007761726520616C61726D20256420616C7B
:1043D000726561647920636C61696D6564000000D9
:1043E00048617264206173736572740052656C6514
:1043F00061736500626F6F74325F77323571303888
:104400003000000068747470733A2F2F6769746805
:1044100075622E636F6D2F7261737062657272794F
:1044200070692F7069636F2D6578616D706C65734D
:104430002F747265652F6D61737465722F75736269
:104440002F6465766963652F6465765F6869645F6C
:10445000636F6D706F73697465000000322E322EC9
:10446000300000007069636F000000005365702029
:10447000313320323032350005005250DE65F468A9
:10448000A05E0010060052505422A29D6C44001001
:1044900006005250861C0302484400100600525089
:1044A000BBFF3CB66444001006005250ABB36053EF
:1044B0005C440010060052509A2356180444001021
:1044C00006005250E182887FF443001006005250EB
:1044D000D3F07542EC4300100D0A0000556E686180
:1044E0006E646C65642049525120307825780A004A
:1044F000657020253032582077617320616C7265B9
:1045000061647920617661696C61626C65000000AC
:1045100043616E277420636F6E74696E75652078D1
:10452000666572206F6E20696E61637469766520BE
:104530006570202530325800402C00109E2D001050
:10454000E42D0010762D0010882D0010662D00102F
:10455000DE2C00108E2C0010822C00101A3100105E
:1045600004310010542D00103C310010542D001067
:10457000E8300010D4300010542D0010BE30001070
:10458000D82F0010542D0010443300102433001095
:1045900018330010542D0010542D00100233001059
:1045A00024330010542D0010542D0010542D0010F1
:1045B000542D0010542D0010542D0010542D0010B7
:1045C00064330010A20D0020A20D0020840D0020F5
:1045D000F80D0020FE0E0020120F0020EC0D002030
:1045E00000000000D1370010E5370010E937001057
:1045F000FD370010893800102D3A0010000000002F
:10460000CC38001094390010803900106C3900103B
:10461000CC380010CC380010CC380010CC3800104A
:10462000CC3800102A3900100A390010F438001074
:104630004C45440009005250000000023046001072
:084640000800525012100200A4
:104648007844001084440010904400109C440010EA
:10465800A8440010B4440010C0440010CC4400101A
:0846680034460010404600102A
:10467000F0B5C646150000B504001E000268EFF351
:10468000108172B61368002BFCD0BFF35F8F042338
:10469000E356002B2DDB2268BFF35F8F00201060F4
:1046A00081F31088D0221206127852B290469A42B4
:1046B00003D1002080BCB846F0BD00270BE0236882
:1046C000BFF35F8F1F6081F310882800310000F076
:1046D0001BFF0028EDD12268EFF3108172B613683A
:1046E000002BFCD0BFF35F8F23797F2BE7D94346A4
:1046F00002E0D0231B061B6823712368BFF35F8F82
:1047000000221A6081F310880120D3E7F0B5C64675
:1047100000B50D00040000F01FFFFA2206000F0094
:10472000002328000021920000F006FF36184F41B8
:10473000002F2CDBD0231B061B68002598460BE0BE
:104740002368BFF35F8F1D6081F31088300039004C
:1047500000F0DAFE002818D12268EFF3108172B65B
:104760001368002BFCD0BFF35F8F23797F2BE7D931
:10477000434623712368BFF35F8F00221A6081F3E1
:104780001088012080BCB846F0BD0020FAE7012661
:10479000014F7642CEE7C046FFFFFF7F0268EFF38E
:1047A000108172B61368002BFCD0BFF35F8FFF231C
:1047B00003710368BFF35F8F00221A6081F31088D2
:1047C00040BF704710B5084C2378002B0AD18023D6
:1047D000064807495B051A68C25004338B42FAD178
:1047E0000123237010BDC04689240020C41E001080
:1047F0000001001010B5024B0133984710BDC046B0
:10480000C41E0020074B5B680360074B5A68426078
:104810009A688260DA68C2601A695B690261436102
:104820007047C04600000240040002400268074B87
:104830005A604268064B5A6082689A60C268DA60C1
:1048400002691A6142695A617047C046000002401D
:1048500004000240034B1A68C0239B009343024AA2
:10486000136070470C8001400C900140054B1A68A2
:1048700080239B005340C02292001340024A1360E1
:104880007047C0460C8001400C9001401423F0B5E5
:10489000D6464F4646469A46C0B5814618880433E8
:1048A00086B098460E001B882A4914009847534644
:1048B00007001888434628491B8898475346050037
:1048C0001888434625491B8898478046FFF77AFF9A
:1048D0006846FFF797FFB847A847FFF7C7FF002CC8
:1048E0001BD0C02122000827022049053D008B6A09
:1048F0001D4018420BD0002C09D0131B0D2B23D8C0
:104900004B461B78013C0B6601239C46E144230087
:10491000002D10D11343002BE8D1FFF79BFFC047B8
:10492000FFF768FF6846FFF781FF06B0E0BCBA46B4
:10493000B146A846F0BD002AEDD00B6E013A3370A7
:10494000130001362343E6E7002DCFD0002ACDD057
:10495000F3E7C046494600004558000046430000C2
:1049600000231C4A10B59360D3601B4A002193605A
:10497000D3601A4A1A489360D3601A4A9360D3608E
:10498000194A9360D360194A9360D360184A9360C0
:10499000D360184A9360D360174A9360D360174A74
:1049A0009360D360164A9360D360164A9360D360D5
:1049B000154A9360D360154A9360D360144A93609C
:1049C000D360F022920000F0CFFD124B124A1A6021
:1049D00010BDC046000010500800105010001050CC
:1049E00050200020180010502000105028001050B7
:1049F0003000105038001050400010504800105047
:104A000050001050580010506000105068001050B6
:104A1000700010505424002080011050F0B54F4613
:104A2000D6464646C0B5204B84B09F6D002F23D09C
:104A30001E4B00249A46012399461D4B0126984699
:104A400004E001347600E4B2202C15D03E42F8D0C8
:104A500053469E654B4665086D00A343ED186D01F6
:104A60004544280000F038FC00280BD10134B7433E
:104A7000E4B27600002FE7D104B0E0BCBA46B146FC
:104A8000A846F0BDEB8AE0210393002301A8AA7891
:104A9000C900018001210271437100F03DFC280032
:104AA00000F0B6FBE2E7C0460000115000301150A4
:104AB000102000209823F0B54646D6464F46CD4AF2
:104AC000C0B5D55880232C009B02102684B01C4012
:104AD0001D4273D0C84BC94C9A6AC94B00261A6054
:104AE0003B23E35C022B00D1FEE07B23E35C022B43
:104AF00000D11CE1BB23E35C022B00D105E1FB23C9
:104B0000E35C022B00D163E13C23FF33E35C022B27
:104B100000D148E17C23FF33E35C022B00D12DE17F
:104B2000BC23FF33E35C022B00D112E1FC23FF33F3
:104B3000E35C022B00D10DE2B24BE35C022B00D10F
:104B4000F4E1B14BE35C022B00D1DBE1AF4BE35C62
:104B5000022B00D1C2E1AE4BE35C022B00D1A9E1F4
:104B6000AC4BE35C022B00D190E1AB4BE35C022B3E
:104B700000D177E1A94BE35C022B00D15CE1A84BAB
:104B8000E35C022B00D1FAE1002E08D1A54B1B7883
:104B9000002B04D18021A44A90338902D150C02235
:104BA000944B01A89B6C92005B055B0D0121802456
:104BB0000280436000F0B0FB9C4EA402EB0600D5DF
:104BC00086E080235B021D4237D01C4300239846B9
:104BD00002339946964B894E9A46B37E002B17D0E6
:104BE0004B4642469F1A00F0AFFC012800D973E003
:104BF000C02200213000920100F010FB300000F0D4
:104C000007FB00F0A1FC012802D9874B5F661F66F5
:104C10000123F37043462036012B23D1C02301A882
:104C2000DB00844A038002AB42CA42C3012100F088
:104C300073FB80227C4B92021A6580235B011D422C
:104C400013D18023DB011D4226D180231B021D428C
:104C500031D1AC4200D0ACE104B0E0BCBA46B146C0
:104C6000A846F0BD01239846B7E700261C43614BD8
:104C70001E60FFF775FE80236A465B009380167204
:104C8000012101A800F048FB8022674B12031A653E
:104C90008023DB011D42D8D01C43802301A8DB0008
:104CA0000380012100F038FB10225F4B1A6580233E
:104CB0001B021D42CDD01C43A02301A8DB000380B2
:104CC000012100F029FB8022574B12011A65C0E731
:104CD000FFF7A4FE340074E75346464A1F66536E3E
:104CE0003B40BB42FBD183E73833E65C002E00D16A
:104CF000FBE60233E25C002A00D1F6E60022200047
:104D0000E254203000F0B2FAEFE6B833E35C002B57
:104D100000D1F4E6BC22A15C1E00002900D1EEE621
:104D200000232000A354A03000F0A0FAE7E6783377
:104D3000E35C002B00D1DDE67C22A15C1E00002993
:104D400000D1D7E600232000A354603000F08EFA93
:104D5000D0E6B933FF33E35C002B00D1E6E6DE2278
:104D60005200A15C1E00002900D1DFE620000023D4
:104D7000A130A354FF3000F079FAD7E67933FF333E
:104D8000E35C002B00D1CBE6BE225200A15C1E00EA
:104D9000002900D1C4E6200000236130A354FF3075
:104DA00000F064FABCE63933FF33E35C002B00D13A
:104DB000B0E69E225200A15C1E00002900D1A9E6A7
:104DC000200000232130A354FF3000F04FFAA1E669
:104DD000F833E35C002B00D196E6FC22A15C1E00B8
:104DE000002900D190E600232000A354E03000F019
:104DF0003DFA89E6000011500040054010200020D7
:104E0000002000203B0200007B020000BB020000EB
:104E1000FB0200003B0300007B030000BB0300001B
:104E2000FB03000087240020003011501000020016
:104E30000020115000001050604BE35C002B00D1AB
:104E40009DE6EF239B00E25C002A00D0A9E05C4BCA
:104E5000E35C022B00D0A2E65A4BE35C002B00D0AF
:104E600092E09CE6584BE35C002B00D182E6DF2207
:104E70009200A15C1E00002900D17BE60023A35410
:104E8000D8239B00E01800F0F1F973E64F4BE35C88
:104E9000002B00D169E6CF229200A15C1E00002900
:104EA00000D162E60023A354C8239B00E01800F061
:104EB000DDF95AE6464BE35C002B00D150E6BF22F9
:104EC0009200A15C1E00002900D149E60023A354F2
:104ED000B8239B00E01800F0C9F941E63D4BE35CC4
:104EE000002B00D137E6AF229200A15C1E00002902
:104EF00000D130E60023A354A8239B00E01800F063
:104F0000B5F928E6344BE35C002B00D11EE69F2266
:104F10009200A15C1E00002900D117E60023A354D3
:104F200098239B00E01800F0A1F90FE62B4BE35CFF
:104F3000002B00D105E68F229200A15C1E00002903
:104F400000D1FEE50023A35488239B00E01800F065
:104F50008DF9F6E5F933FF33E35C002B00D1EBE587
:104F6000FE225200A15C1E00002900D1E4E52000D1
:104F70000023E130A354FF3000F078F9DCE5114B59
:104F8000E35C002B00D1FFE5FF239B00E25C002ADD
:104F900000D104E60022E2541C3BE01800F066F960
:104FA000FDE50022E254E8239B00E01800F05EF9E2
:104FB0004DE721000A48694000F0DEFABA0300001C
:104FC000FB030000FA0300007A0300003A0300002C
:104FD000FA020000BA0200007A0200003A02000061
:104FE000DC440010F0B5D6464F4646460300C0B537
:104FF0001C8B808A8A46221C844200D9021C80268F
:1050000092B2801ADD7884B2F6009C821643002D9D
:1050100002D09026B601164301277D40DD705D78F1
:105020003000002D41D151468801D9681F698C4656
:10503000511E88468444002A32D0614602207C1CDE
:105040000C1BA042804108244445A44140426442D4
:10505000044238D060463843810734D1151FAD086B
:10506000691C89460020002461463D5801340D50DA
:105070000430A145F8D849468D0061464C19414697
:105080007F19481BAA4209D03D782570002805D019
:105090007D786570012801D0B878A0701F699C8A5E
:1050A0008020BA1800021A613043002C02D18023FC
:1050B000DB0118435346002B00D00004E0BCBA4685
:1050C000B146A846F0BD002061463C5C0C5401305E
:1050D0008242F9D1E2E7C04682680300F0B5106869
:1050E000002900D0000C5A788005800D002A08D1D4
:1050F000DA8A8218DA821A8B824201D900229A82D5
:10510000F0BDDA688901451EAC461C6956180028B6
:105110002ED00131511825000222611A8A4289419C
:10512000354301322A4055426A4149420A4225D05C
:105130006246082A22D900220021051FAD08013548
:10514000B7580131A75004328D42F9D86246AD00FC
:1051500076196419571BA84209D032782270002FA3
:1051600005D072786270012F01D0B278A2701C69EC
:10517000DA8A24188218DA821C61BCE70022B15C4A
:10518000A15401329042FAD11C69F1E710B5040034
:10519000836800211B68FFF79FFF63681B685B0043
:1051A00002D5238B834200D010BD01212000FFF7E0
:1051B00093FFF9E7084A0300126C0020920703D41A
:1051C0009A78D209012A00D07047D87E023843422B
:1051D0005841C0B2F8E7C0460000115010B5FFF7C3
:1051E000E9FF00280CD00749074B8C46074A9B6A09
:1051F000126863449B1A0020C6229A424041C0B202
:1052000010BDC046E0FCFFFF00400540002000202C
:1052100000238376436103617047C04610B58368FD
:10522000002901D01C682140002A12D08024E4000B
:10523000114322420DD01A6822420CD1084A0A407A
:105240001A60084A126C920703D40C23033BFDD268
:105250008368196010BD8178034800F08DF9C0465D
:10526000FFFBFFFF00001150F0440010436870B5D1
:10527000002180251E680400FFF7B4FE134B6D016A
:105280001B6C05439B070FD5A3785B060FD0104B13
:105290001E4080239B053343626800211360200079
:1052A0002A00FFF7BBFF70BDA378DB09EFD0A38A0C
:1052B000002BECD001212000FFF794FEA023054A2B
:1052C000DB05324005431343E6E7C04600001150BA
:1052D000FFFFFFAFFFFFFFDF70B5857E0400002DED
:1052E00013D0FFF753FFA38A002B01D1280070BD14
:1052F0002000FFF773FF051E03D00123002523774D
:10530000F4E72000FFF7B2FFF0E78178014800F0F2
:1053100033F9C04610450010F0B5CE46474680B57B
:10532000437805000E0085B0062B12D86D4A9B000D
:10533000D3589F4601216C4B1A788A431A701A7809
:1053400001318A431A7000225A701A7802318A4356
:105350001A70664B1C686269EFF3108172B61368AD
:10536000002BFCD0BFF35F8FA1612000290000F06B
:10537000D3F86269A369BFF35F8F0021116083F3E3
:105380001088002804D105B0C0BCB946B046F0BDB5
:1053900032006978287800F0C7F8F4E7544A1378A7
:1053A0000133DBB21370D4E7524B534F9946534B42
:1053B000002498463A780AE04146096863018C4621
:1053C0006344002B08D10134E4B294420FD8A242C6
:1053D000F2D8A31A5B014B44DB69002BF3D0287889
:1053E0006968984701343A78E4B29442EFD93E4F65
:1053F0003B785B072AD504223B7801AC934300211C
:10540000200008323B7000F0AFF82B7823700523A2
:105410006370364B1B6898465A69EFF3108172B679
:105420001368002BFCD0BFF35F8F43464046996161
:10543000210000F071F843465A699B69BFF35F8F02
:105440000021116083F31088002844D1FB78DB072A
:1054500000D498E701AC0C220021200000F084F871
:105460002B782370032363706B6863601F4B1D6888
:105470006A69EFF3108172B61368002BFCD0BFF39A
:105480005F8FA9612800210000F046F86A69AB69C6
:10549000BFF35F8F0021116083F31088002800D1D3
:1054A00071E732006178207800F03EF86BE70E4B30
:1054B0001A78D20700D466E704211A780A431A70D2
:1054C00047E7094B1A78D20700D45CE704211A7821
:1054D0008A431A703DE732006178207800F024F8A2
:1054E000B4E7C046C4450010A81D0020001E0020DF
:1054F00088240020E045001086240020C41C0020E1
:105500007047C0460000000001B40248844601BC58
:10551000604700BF8113001001B40248844601BCFB
:10552000604700BF993C001001B40248844601BCAA
:10553000604700BFD12A001001B40248844601BC74
:10554000604700BFF520001001B40248844601BC4A
:10555000604700BF3107001001B40248844601BC17
:10556000604700BFA114001001B40248844601BC8A
:10557000604700BFD121001001B40248844601BC3D
:10558000604700BF3D070010FA00000060420010B5
:1055900048420010504200100000000010000000BF
:1055A00000000000000001000000000000000000FA
:1055B00000000200000000000000000000000300E6
:1055C00000000000000000000000FF0000000000DC
:1055D00001B5486801318E460047704609380149D7
:1055E000884701BDE90C0010000000000000000029
:1055F000000000000000000000000000F018002083
:10560000503300004C33000054330000523300008C
:105610004D5300004D43000053340000433400005C
:10562000652500105D260010B125001071260010C0
:105630000000000000010000041E002010000C000B
:10564000000000000000000000000000000000005A
:1056500000000000FF000000B0100020000000006B
:10566000000000009C130020041400206C14002093
:10567000000000000000000000000000000000002A
:10568000000000000000000000000000000000001A
:10569000000000000000000000000000000000000A
:1056A00000000000000000000000000000000000FA
:1056B00000000000000000000000000000000000EA
:1056C00000000000000000000000000000000000DA
:1056D00000000000000000000000000000000000CA
:1056E00000000000000000000000000000000000BA
:1056F00000000000000000000000000000000000AA
:105700000000000000000000010000000000000098
:105710000E33CDAB34126DE6ECDE05000B0000005D
:105720000000000000000000000000000000000079
:105730000000000000000000000000000000000069
:105740000000000000000000000000000000000059
:105750000000000000000000000000000000000049
:105A9000D8140020D8140020E0140020E0140020C6
:105AA000E8140020E8140020F0140020F014002076
:105AB000F8140020F8140020001500200015002024
:105AC00008150020081500201015002010150020D2
:105AD0001815002018150020201500202015002082
:105AE0002815002028150020301500203015002032
:105AF00038150020381500204015002040150020E2
:105B00004815002048150020501500205015002091
:105B10005815002058150020601500206015002041
:105B200068150020681500207015002070150020F1
:105B300078150020781500208015002080150020A1
:105B40008815002088150020901500209015002051
:105B50009815002098150020A0150020A015002001
:105B6000A8150020A8150020B0150020B0150020B1
:105B7000B8150020B8150020C0150020C015002061
:105B8000C8150020C8150020D0150020D015002011
:105B9000D8150020D8150020E0150020E0150020C1
:105BA000E8150020E8150020F0150020F015002071
:105BB000F8150020F815002000160020001600201F
:105BC00008160020081600201016002010160020CD
:105BD000181600201816002020160020201600207D
:105BE000281600202816002030160020301600202D
:105BF00038160020381600204016002040160020DD
:105C0000481600204816002050160020501600208C
:105C1000581600205816002060160020601600203C
:105C200068160020681600207016002070160020EC
:105C3000781600207816002080160020801600209C
:105C4000881600208816002090160020901600204C
:105C50009816002098160020A0160020A0160020FC
:105C6000A8160020A8160020B0160020B0160020AC
:105C7000B8160020B8160020C0160020C01600205C
:105C8000C8160020C8160020D0160020D01600200C
:105C9000D8160020D8160020E0160020E0160020BC
:105CA000E8160020E8160020F0160020F01600206C
:105CB000F8160020F816002000170020001700201A
:105CC00008170020081700201017002010170020C8
:105CD0001817002018170020201700202017002078
:105CE0002817002028170020301700203017002028
:105CF00038170020381700204017002040170020D8
:105D00004817002048170020501700205017002087
:105D10005817002058170020601700206017002037
:105D200068170020681700207017002070170020E7
:105D30007817002078170020801700208017002097
:105D40008817002088170020901700209017002047
:105D50009817002098170020A0170020A0170020F7
:105D6000A8170020A8170020B0170020B0170020A7
:105D7000B8170020B8170020C0170020C017002057
:105D8000C8170020C8170020D0170020D017002007
:105D9000D8170020D8170020E0170020E0170020B7
:105DA000E8170020E8170020F0170020F017002067
:105DB000F8170020F8170020001800200018002015
:105DC00008180020081800201018002010180020C3
:105DD0001818002018180020201800202018002073
:105DE0002818002028180020301800203018002023
:105DF00038180020381800204018002040180020D3
